{
  "_format": "hh-sol-artifact-1",
  "contractName": "CertificateRegistry",
  "sourceName": "contracts/CertificateRegistry.sol",
  "abi": [
    {
      "anonymous": false,
      "inputs": [
        {
          "indexed": true,
          "internalType": "bytes32",
          "name": "certificateId",
          "type": "bytes32"
        },
        {
          "indexed": true,
          "internalType": "address",
          "name": "student",
          "type": "address"
        },
        {
          "indexed": true,
          "internalType": "address",
          "name": "issuer",
          "type": "address"
        },
        {
          "indexed": false,
          "internalType": "bytes32",
          "name": "fileHash",
          "type": "bytes32"
        },
        {
          "indexed": false,
          "internalType": "uint256",
          "name": "issuedAt",
          "type": "uint256"
        }
      ],
      "name": "CertificateIssued",
      "type": "event"
    },
    {
      "anonymous": false,
      "inputs": [
        {
          "indexed": true,
          "internalType": "bytes32",
          "name": "certificateId",
          "type": "bytes32"
        },
        {
          "indexed": true,
          "internalType": "address",
          "name": "issuer",
          "type": "address"
        },
        {
          "indexed": false,
          "internalType": "uint256",
          "name": "revokedAt",
          "type": "uint256"
        }
      ],
      "name": "CertificateRevoked",
      "type": "event"
    },
    {
      "anonymous": false,
      "inputs": [
        {
          "indexed": true,
          "internalType": "address",
          "name": "issuer",
          "type": "address"
        },
        {
          "indexed": false,
          "internalType": "string",
          "name": "name",
          "type": "string"
        },
        {
          "indexed": false,
          "internalType": "string",
          "name": "instituteId",
          "type": "string"
        }
      ],
      "name": "IssuerRegistered",
      "type": "event"
    },
    {
      "anonymous": false,
      "inputs": [
        {
          "indexed": true,
          "internalType": "address",
          "name": "verifierAddress",
          "type": "address"
        },
        {
          "indexed": true,
          "internalType": "address",
          "name": "registeredBy",
          "type": "address"
        }
      ],
      "name": "VerifierRegistered",
      "type": "event"
    },
    {
      "inputs": [
        {
          "internalType": "address",
          "name": "",
          "type": "address"
        }
      ],
      "name": "approvedIssuers",
      "outputs": [
        {
          "internalType": "bool",
          "name": "",
          "type": "bool"
        }
      ],
      "stateMutability": "view",
      "type": "function"
    },
    {
      "inputs": [
        {
          "internalType": "bytes32",
          "name": "certificateId",
          "type": "bytes32"
        }
      ],
      "name": "getCertificate",
      "outputs": [
        {
          "internalType": "bytes32",
          "name": "fileHash",
          "type": "bytes32"
        },
        {
          "internalType": "address",
          "name": "student",
          "type": "address"
        },
        {
          "internalType": "address",
          "name": "issuer",
          "type": "address"
        },
        {
          "internalType": "uint256",
          "name": "issuedAt",
          "type": "uint256"
        },
        {
          "internalType": "bool",
          "name": "revoked",
          "type": "bool"
        },
        {
          "internalType": "uint256",
          "name": "revokedAt",
          "type": "uint256"
        },
        {
          "internalType": "string",
          "name": "instituteName",
          "type": "string"
        },
        {
          "internalType": "string",
          "name": "instituteId",
          "type": "string"
        },
        {
          "internalType": "string",
          "name": "studentName",
          "type": "string"
        },
        {
          "internalType": "string",
          "name": "courseName",
          "type": "string"
        }
      ],
      "stateMutability": "view",
      "type": "function"
    },
    {
      "inputs": [
        {
          "internalType": "address",
          "name": "issuer",
          "type": "address"
        }
      ],
      "name": "getCertificatesByIssuer",
      "outputs": [
        {
          "internalType": "bytes32[]",
          "name": "ids",
          "type": "bytes32[]"
        },
        {
          "components": [
            {
              "internalType": "bytes32",
              "name": "fileHash",
              "type": "bytes32"
            },
            {
              "internalType": "address",
              "name": "student",
              "type": "address"
            },
            {
              "internalType": "address",
              "name": "issuer",
              "type": "address"
            },
            {
              "internalType": "uint256",
              "name": "issuedAt",
              "type": "uint256"
            },
            {
              "internalType": "bool",
              "name": "revoked",
              "type": "bool"
            },
            {
              "internalType": "uint256",
              "name": "revokedAt",
              "type": "uint256"
            },
            {
              "internalType": "string",
              "name": "instituteName",
              "type": "string"
            },
            {
              "internalType": "string",
              "name": "instituteId",
              "type": "string"
            },
            {
              "internalType": "string",
              "name": "studentName",
              "type": "string"
            },
            {
              "internalType": "string",
              "name": "courseName",
              "type": "string"
            }
          ],
          "internalType": "struct CertificateRegistry.Certificate[]",
          "name": "certs",
          "type": "tuple[]"
        }
      ],
      "stateMutability": "view",
      "type": "function"
    },
    {
      "inputs": [
        {
          "internalType": "address",
          "name": "",
          "type": "address"
        }
      ],
      "name": "institutes",
      "outputs": [
        {
          "internalType": "string",
          "name": "name",
          "type": "string"
        },
        {
          "internalType": "string",
          "name": "instituteId",
          "type": "string"
        },
        {
          "internalType": "string",
          "name": "location",
          "type": "string"
        },
        {
          "internalType": "bool",
          "name": "exists",
          "type": "bool"
        }
      ],
      "stateMutability": "view",
      "type": "function"
    },
    {
      "inputs": [
        {
          "internalType": "address",
          "name": "addr",
          "type": "address"
        }
      ],
      "name": "isVerifier",
      "outputs": [
        {
          "internalType": "bool",
          "name": "",
          "type": "bool"
        }
      ],
      "stateMutability": "view",
      "type": "function"
    },
    {
      "inputs": [
        {
          "internalType": "bytes32",
          "name": "certificateId",
          "type": "bytes32"
        },
        {
          "internalType": "address",
          "name": "studentAddress",
          "type": "address"
        },
        {
          "internalType": "bytes32",
          "name": "fileHash",
          "type": "bytes32"
        },
        {
          "internalType": "string",
          "name": "studentName",
          "type": "string"
        },
        {
          "internalType": "string",
          "name": "courseName",
          "type": "string"
        }
      ],
      "name": "issueCertificate",
      "outputs": [],
      "stateMutability": "nonpayable",
      "type": "function"
    },
    {
      "inputs": [
        {
          "internalType": "string",
          "name": "name",
          "type": "string"
        },
        {
          "internalType": "string",
          "name": "instituteId",
          "type": "string"
        },
        {
          "internalType": "string",
          "name": "location",
          "type": "string"
        }
      ],
      "name": "registerIssuer",
      "outputs": [],
      "stateMutability": "nonpayable",
      "type": "function"
    },
    {
      "inputs": [
        {
          "internalType": "address",
          "name": "verifierAddress",
          "type": "address"
        }
      ],
      "name": "registerVerifier",
      "outputs": [],
      "stateMutability": "nonpayable",
      "type": "function"
    },
    {
      "inputs": [
        {
          "internalType": "bytes32",
          "name": "certificateId",
          "type": "bytes32"
        }
      ],
      "name": "revokeCertificate",
      "outputs": [],
      "stateMutability": "nonpayable",
      "type": "function"
    },
    {
      "inputs": [
        {
          "internalType": "bytes32",
          "name": "certificateId",
          "type": "bytes32"
        },
        {
          "internalType": "bytes32",
          "name": "fileHashToCheck",
          "type": "bytes32"
        }
      ],
      "name": "verifyCertificate",
      "outputs": [
        {
          "internalType": "bool",
          "name": "isValid",
          "type": "bool"
        }
      ],
      "stateMutability": "view",
      "type": "function"
    }
  ],
  "bytecode": "0x608060405234801561001057600080fd5b50612d73806100206000396000f3fe608060405234801561001057600080fd5b506004361061009e5760003560e01c8063c639e8c511610066578063c639e8c51461016e578063c6cbc52a1461018a578063f333fe08146101a6578063fb87b9e7146101df578063feef67141461020f5761009e565b80631f75435d146100a357806333105218146100d35780637e0e46b7146101035780638096373e14610136578063969f7a4e14610152575b600080fd5b6100bd60048036038101906100b89190611c04565b61023f565b6040516100ca9190611c5f565b60405180910390f35b6100ed60048036038101906100e89190611cd8565b6105c4565b6040516100fa9190611c5f565b60405180910390f35b61011d60048036038101906101189190611cd8565b61061a565b60405161012d9493929190611d95565b60405180910390f35b610150600480360381019061014b9190611f24565b6107ef565b005b61016c60048036038101906101679190611fcb565b6109ef565b005b61018860048036038101906101839190611cd8565b610dfd565b005b6101a4600480360381019061019f919061207e565b611039565b005b6101c060048036038101906101bb919061207e565b61127f565b6040516101d69a999897969594939291906120e2565b60405180910390f35b6101f960048036038101906101f49190611cd8565b61167b565b6040516102069190611c5f565b60405180910390f35b61022960048036038101906102249190611cd8565b61169b565b60405161023691906123d1565b60405180910390f35b6000806003600085815260200190815260200160002060405180610140016040529081600082015481526020016001820160009054906101000a900473ffffffffffffffffffffffffffffffffffffffff1673ffffffffffffffffffffffffffffffffffffffff1673ffffffffffffffffffffffffffffffffffffffff1681526020016002820160009054906101000a900473ffffffffffffffffffffffffffffffffffffffff1673ffffffffffffffffffffffffffffffffffffffff1673ffffffffffffffffffffffffffffffffffffffff168152602001600382015481526020016004820160009054906101000a900460ff161515151581526020016005820154815260200160068201805461035690612422565b80601f016020809104026020016040519081016040528092919081815260200182805461038290612422565b80156103cf5780601f106103a4576101008083540402835291602001916103cf565b820191906000526020600020905b8154815290600101906020018083116103b257829003601f168201915b505050505081526020016007820180546103e890612422565b80601f016020809104026020016040519081016040528092919081815260200182805461041490612422565b80156104615780601f1061043657610100808354040283529160200191610461565b820191906000526020600020905b81548152906001019060200180831161044457829003601f168201915b5050505050815260200160088201805461047a90612422565b80601f01602080910402602001604051908101604052809291908181526020018280546104a690612422565b80156104f35780601f106104c8576101008083540402835291602001916104f3565b820191906000526020600020905b8154815290600101906020018083116104d657829003601f168201915b5050505050815260200160098201805461050c90612422565b80601f016020809104026020016040519081016040528092919081815260200182805461053890612422565b80156105855780601f1061055a57610100808354040283529160200191610585565b820191906000526020600020905b81548152906001019060200180831161056857829003601f168201915b50505050508152505090506000816060015114806105a4575080608001515b156105b35760009150506105be565b828160000151149150505b92915050565b6000600260008373ffffffffffffffffffffffffffffffffffffffff1673ffffffffffffffffffffffffffffffffffffffff16815260200190815260200160002060009054906101000a900460ff169050919050565b600160205280600052604060002060009150905080600001805461063d90612422565b80601f016020809104026020016040519081016040528092919081815260200182805461066990612422565b80156106b65780601f1061068b576101008083540402835291602001916106b6565b820191906000526020600020905b81548152906001019060200180831161069957829003601f168201915b5050505050908060010180546106cb90612422565b80601f01602080910402602001604051908101604052809291908181526020018280546106f790612422565b80156107445780601f1061071957610100808354040283529160200191610744565b820191906000526020600020905b81548152906001019060200180831161072757829003601f168201915b50505050509080600201805461075990612422565b80601f016020809104026020016040519081016040528092919081815260200182805461078590612422565b80156107d25780601f106107a7576101008083540402835291602001916107d2565b820191906000526020600020905b8154815290600101906020018083116107b557829003601f168201915b5050505050908060030160009054906101000a900460ff16905084565b6000803373ffffffffffffffffffffffffffffffffffffffff1673ffffffffffffffffffffffffffffffffffffffff16815260200190815260200160002060009054906101000a900460ff161561087b576040517f08c379a00000000000000000000000000000000000000000000000000000000081526004016108729061249f565b60405180910390fd5b60016000803373ffffffffffffffffffffffffffffffffffffffff1673ffffffffffffffffffffffffffffffffffffffff16815260200190815260200160002060006101000a81548160ff021916908315150217905550604051806080016040528084815260200183815260200182815260200160011515815250600160003373ffffffffffffffffffffffffffffffffffffffff1673ffffffffffffffffffffffffffffffffffffffff168152602001908152602001600020600082015181600001908161094a919061266b565b506020820151816001019081610960919061266b565b506040820151816002019081610976919061266b565b5060608201518160030160006101000a81548160ff0219169083151502179055509050503373ffffffffffffffffffffffffffffffffffffffff167f2b062b4e0857383c98aacd16bcd2714030d81ad54eb91dd1885634442438665184846040516109e292919061273d565b60405180910390a2505050565b6000803373ffffffffffffffffffffffffffffffffffffffff1673ffffffffffffffffffffffffffffffffffffffff16815260200190815260200160002060009054906101000a900460ff16610a7a576040517f08c379a0000000000000000000000000000000000000000000000000000000008152600401610a71906127c0565b60405180910390fd5b6000801b8503610abf576040517f08c379a0000000000000000000000000000000000000000000000000000000008152600401610ab69061282c565b60405180910390fd5b600073ffffffffffffffffffffffffffffffffffffffff168473ffffffffffffffffffffffffffffffffffffffff1603610b2e576040517f08c379a0000000000000000000000000000000000000000000000000000000008152600401610b2590612898565b60405180910390fd5b6000600360008781526020019081526020016000206003015414610b87576040517f08c379a0000000000000000000000000000000000000000000000000000000008152600401610b7e90612904565b60405180910390fd5b6000600360008781526020019081526020016000209050838160000181905550848160010160006101000a81548173ffffffffffffffffffffffffffffffffffffffff021916908373ffffffffffffffffffffffffffffffffffffffff160217905550338160020160006101000a81548173ffffffffffffffffffffffffffffffffffffffff021916908373ffffffffffffffffffffffffffffffffffffffff16021790555042816003018190555060008160040160006101000a81548160ff02191690831515021790555060008160050181905550600160003373ffffffffffffffffffffffffffffffffffffffff1673ffffffffffffffffffffffffffffffffffffffff168152602001908152602001600020600001816006019081610caf919061294f565b50600160003373ffffffffffffffffffffffffffffffffffffffff1673ffffffffffffffffffffffffffffffffffffffff168152602001908152602001600020600101816007019081610d02919061294f565b5082816008019081610d14919061266b565b5081816009019081610d26919061266b565b50600460003373ffffffffffffffffffffffffffffffffffffffff1673ffffffffffffffffffffffffffffffffffffffff1681526020019081526020016000208690806001815401808255809150506001900390600052602060002001600090919091909150553373ffffffffffffffffffffffffffffffffffffffff168573ffffffffffffffffffffffffffffffffffffffff16877f68f98d13b94c9094a5de875951af464c68006a4268e07d480c936454ece6a6348742604051610ded929190612a37565b60405180910390a4505050505050565b6000803373ffffffffffffffffffffffffffffffffffffffff1673ffffffffffffffffffffffffffffffffffffffff16815260200190815260200160002060009054906101000a900460ff16610e88576040517f08c379a0000000000000000000000000000000000000000000000000000000008152600401610e7f906127c0565b60405180910390fd5b600073ffffffffffffffffffffffffffffffffffffffff168173ffffffffffffffffffffffffffffffffffffffff1603610ef7576040517f08c379a0000000000000000000000000000000000000000000000000000000008152600401610eee90612aac565b60405180910390fd5b600260008273ffffffffffffffffffffffffffffffffffffffff1673ffffffffffffffffffffffffffffffffffffffff16815260200190815260200160002060009054906101000a900460ff1615610f84576040517f08c379a0000000000000000000000000000000000000000000000000000000008152600401610f7b90612b18565b60405180910390fd5b6001600260008373ffffffffffffffffffffffffffffffffffffffff1673ffffffffffffffffffffffffffffffffffffffff16815260200190815260200160002060006101000a81548160ff0219169083151502179055503373ffffffffffffffffffffffffffffffffffffffff168173ffffffffffffffffffffffffffffffffffffffff167f40a3770fa32da25d352c90e0a204ef9c13d3756eb9e02b5c8d2b797fec18545360405160405180910390a350565b6000803373ffffffffffffffffffffffffffffffffffffffff1673ffffffffffffffffffffffffffffffffffffffff16815260200190815260200160002060009054906101000a900460ff166110c4576040517f08c379a00000000000000000000000000000000000000000000000000000000081526004016110bb906127c0565b60405180910390fd5b60006003600083815260200190815260200160002090506000816003015403611122576040517f08c379a000000000000000000000000000000000000000000000000000000000815260040161111990612b84565b60405180910390fd5b3373ffffffffffffffffffffffffffffffffffffffff168160020160009054906101000a900473ffffffffffffffffffffffffffffffffffffffff1673ffffffffffffffffffffffffffffffffffffffff16146111b4576040517f08c379a00000000000000000000000000000000000000000000000000000000081526004016111ab90612bf0565b60405180910390fd5b8060040160009054906101000a900460ff1615611206576040517f08c379a00000000000000000000000000000000000000000000000000000000081526004016111fd90612c5c565b60405180910390fd5b60018160040160006101000a81548160ff0219169083151502179055504281600501819055503373ffffffffffffffffffffffffffffffffffffffff16827f85fe6dd2dfc4757558754564c7ff020182ec3c918257c2ff3a217a63791ec24f426040516112739190612c7c565b60405180910390a35050565b6000806000806000806060806060806000600360008d815260200190815260200160002060405180610140016040529081600082015481526020016001820160009054906101000a900473ffffffffffffffffffffffffffffffffffffffff1673ffffffffffffffffffffffffffffffffffffffff1673ffffffffffffffffffffffffffffffffffffffff1681526020016002820160009054906101000a900473ffffffffffffffffffffffffffffffffffffffff1673ffffffffffffffffffffffffffffffffffffffff1673ffffffffffffffffffffffffffffffffffffffff168152602001600382015481526020016004820160009054906101000a900460ff16151515158152602001600582015481526020016006820180546113a490612422565b80601f01602080910402602001604051908101604052809291908181526020018280546113d090612422565b801561141d5780601f106113f25761010080835404028352916020019161141d565b820191906000526020600020905b81548152906001019060200180831161140057829003601f168201915b5050505050815260200160078201805461143690612422565b80601f016020809104026020016040519081016040528092919081815260200182805461146290612422565b80156114af5780601f10611484576101008083540402835291602001916114af565b820191906000526020600020905b81548152906001019060200180831161149257829003601f168201915b505050505081526020016008820180546114c890612422565b80601f01602080910402602001604051908101604052809291908181526020018280546114f490612422565b80156115415780601f1061151657610100808354040283529160200191611541565b820191906000526020600020905b81548152906001019060200180831161152457829003601f168201915b5050505050815260200160098201805461155a90612422565b80601f016020809104026020016040519081016040528092919081815260200182805461158690612422565b80156115d35780601f106115a8576101008083540402835291602001916115d3565b820191906000526020600020905b8154815290600101906020018083116115b657829003601f168201915b50505050508152505090506000816060015103611625576040517f08c379a000000000000000000000000000000000000000000000000000000000815260040161161c90612b84565b60405180910390fd5b806000015181602001518260400151836060015184608001518560a001518660c001518760e001518861010001518961012001519a509a509a509a509a509a509a509a509a509a50509193959799509193959799565b60006020528060005260406000206000915054906101000a900460ff1681565b60606000600460008473ffffffffffffffffffffffffffffffffffffffff1673ffffffffffffffffffffffffffffffffffffffff16815260200190815260200160002080548060200260200160405190810160405280929190818152602001828054801561172857602002820191906000526020600020905b815481526020019060010190808311611714575b505050505090506000815167ffffffffffffffff81111561174c5761174b611df9565b5b60405190808252806020026020018201604052801561178557816020015b611772611b36565b81526020019060019003908161176a5790505b50905060005b8251811015611b2b57600360008483815181106117ab576117aa612c97565b5b6020026020010151815260200190815260200160002060405180610140016040529081600082015481526020016001820160009054906101000a900473ffffffffffffffffffffffffffffffffffffffff1673ffffffffffffffffffffffffffffffffffffffff1673ffffffffffffffffffffffffffffffffffffffff1681526020016002820160009054906101000a900473ffffffffffffffffffffffffffffffffffffffff1673ffffffffffffffffffffffffffffffffffffffff1673ffffffffffffffffffffffffffffffffffffffff168152602001600382015481526020016004820160009054906101000a900460ff16151515158152602001600582015481526020016006820180546118c290612422565b80601f01602080910402602001604051908101604052809291908181526020018280546118ee90612422565b801561193b5780601f106119105761010080835404028352916020019161193b565b820191906000526020600020905b81548152906001019060200180831161191e57829003601f168201915b5050505050815260200160078201805461195490612422565b80601f016020809104026020016040519081016040528092919081815260200182805461198090612422565b80156119cd5780601f106119a2576101008083540402835291602001916119cd565b820191906000526020600020905b8154815290600101906020018083116119b057829003601f168201915b505050505081526020016008820180546119e690612422565b80601f0160208091040260200160405190810160405280929190818152602001828054611a1290612422565b8015611a5f5780601f10611a3457610100808354040283529160200191611a5f565b820191906000526020600020905b815481529060010190602001808311611a4257829003601f168201915b50505050508152602001600982018054611a7890612422565b80601f0160208091040260200160405190810160405280929190818152602001828054611aa490612422565b8015611af15780601f10611ac657610100808354040283529160200191611af1565b820191906000526020600020905b815481529060010190602001808311611ad457829003601f168201915b505050505081525050828281518110611b0d57611b0c612c97565b5b60200260200101819052508080611b2390612cf5565b91505061178b565b508092505050919050565b60405180610140016040528060008019168152602001600073ffffffffffffffffffffffffffffffffffffffff168152602001600073ffffffffffffffffffffffffffffffffffffffff1681526020016000815260200160001515815260200160008152602001606081526020016060815260200160608152602001606081525090565b6000604051905090565b600080fd5b600080fd5b6000819050919050565b611be181611bce565b8114611bec57600080fd5b50565b600081359050611bfe81611bd8565b92915050565b60008060408385031215611c1b57611c1a611bc4565b5b6000611c2985828601611bef565b9250506020611c3a85828601611bef565b9150509250929050565b60008115159050919050565b611c5981611c44565b82525050565b6000602082019050611c746000830184611c50565b92915050565b600073ffffffffffffffffffffffffffffffffffffffff82169050919050565b6000611ca582611c7a565b9050919050565b611cb581611c9a565b8114611cc057600080fd5b50565b600081359050611cd281611cac565b92915050565b600060208284031215611cee57611ced611bc4565b5b6000611cfc84828501611cc3565b91505092915050565b600081519050919050565b600082825260208201905092915050565b60005b83811015611d3f578082015181840152602081019050611d24565b60008484015250505050565b6000601f19601f8301169050919050565b6000611d6782611d05565b611d718185611d10565b9350611d81818560208601611d21565b611d8a81611d4b565b840191505092915050565b60006080820190508181036000830152611daf8187611d5c565b90508181036020830152611dc38186611d5c565b90508181036040830152611dd78185611d5c565b9050611de66060830184611c50565b95945050505050565b600080fd5b600080fd5b7f4e487b7100000000000000000000000000000000000000000000000000000000600052604160045260246000fd5b611e3182611d4b565b810181811067ffffffffffffffff82111715611e5057611e4f611df9565b5b80604052505050565b6000611e63611bba565b9050611e6f8282611e28565b919050565b600067ffffffffffffffff821115611e8f57611e8e611df9565b5b611e9882611d4b565b9050602081019050919050565b82818337600083830152505050565b6000611ec7611ec284611e74565b611e59565b905082815260208101848484011115611ee357611ee2611df4565b5b611eee848285611ea5565b509392505050565b600082601f830112611f0b57611f0a611def565b5b8135611f1b848260208601611eb4565b91505092915050565b600080600060608486031215611f3d57611f3c611bc4565b5b600084013567ffffffffffffffff811115611f5b57611f5a611bc9565b5b611f6786828701611ef6565b935050602084013567ffffffffffffffff811115611f8857611f87611bc9565b5b611f9486828701611ef6565b925050604084013567ffffffffffffffff811115611fb557611fb4611bc9565b5b611fc186828701611ef6565b9150509250925092565b600080600080600060a08688031215611fe757611fe6611bc4565b5b6000611ff588828901611bef565b955050602061200688828901611cc3565b945050604061201788828901611bef565b935050606086013567ffffffffffffffff81111561203857612037611bc9565b5b61204488828901611ef6565b925050608086013567ffffffffffffffff81111561206557612064611bc9565b5b61207188828901611ef6565b9150509295509295909350565b60006020828403121561209457612093611bc4565b5b60006120a284828501611bef565b91505092915050565b6120b481611bce565b82525050565b6120c381611c9a565b82525050565b6000819050919050565b6120dc816120c9565b82525050565b6000610140820190506120f8600083018d6120ab565b612105602083018c6120ba565b612112604083018b6120ba565b61211f606083018a6120d3565b61212c6080830189611c50565b61213960a08301886120d3565b81810360c083015261214b8187611d5c565b905081810360e083015261215f8186611d5c565b90508181036101008301526121748185611d5c565b90508181036101208301526121898184611d5c565b90509b9a5050505050505050505050565b600081519050919050565b600082825260208201905092915050565b6000819050602082019050919050565b6121cf81611bce565b82525050565b6121de81611c9a565b82525050565b6121ed816120c9565b82525050565b6121fc81611c44565b82525050565b600082825260208201905092915050565b600061221e82611d05565b6122288185612202565b9350612238818560208601611d21565b61224181611d4b565b840191505092915050565b60006101408301600083015161226560008601826121c6565b50602083015161227860208601826121d5565b50604083015161228b60408601826121d5565b50606083015161229e60608601826121e4565b5060808301516122b160808601826121f3565b5060a08301516122c460a08601826121e4565b5060c083015184820360c08601526122dc8282612213565b91505060e083015184820360e08601526122f68282612213565b9150506101008301518482036101008601526123128282612213565b91505061012083015184820361012086015261232e8282612213565b9150508091505092915050565b6000612347838361224c565b905092915050565b6000602082019050919050565b60006123678261219a565b61237181856121a5565b935083602082028501612383856121b6565b8060005b858110156123bf57848403895281516123a0858261233b565b94506123ab8361234f565b925060208a01995050600181019050612387565b50829750879550505050505092915050565b600060208201905081810360008301526123eb818461235c565b905092915050565b7f4e487b7100000000000000000000000000000000000000000000000000000000600052602260045260246000fd5b6000600282049050600182168061243a57607f821691505b60208210810361244d5761244c6123f3565b5b50919050565b7f49737375657220616c7265616479207265676973746572656400000000000000600082015250565b6000612489601983611d10565b915061249482612453565b602082019050919050565b600060208201905081810360008301526124b88161247c565b9050919050565b60008190508160005260206000209050919050565b60006020601f8301049050919050565b600082821b905092915050565b6000600883026125217fffffffffffffffffffffffffffffffffffffffffffffffffffffffffffffffff826124e4565b61252b86836124e4565b95508019841693508086168417925050509392505050565b6000819050919050565b600061256861256361255e846120c9565b612543565b6120c9565b9050919050565b6000819050919050565b6125828361254d565b61259661258e8261256f565b8484546124f1565b825550505050565b600090565b6125ab61259e565b6125b6818484612579565b505050565b5b818110156125da576125cf6000826125a3565b6001810190506125bc565b5050565b601f82111561261f576125f0816124bf565b6125f9846124d4565b81016020851015612608578190505b61261c612614856124d4565b8301826125bb565b50505b505050565b600082821c905092915050565b600061264260001984600802612624565b1980831691505092915050565b600061265b8383612631565b9150826002028217905092915050565b61267482611d05565b67ffffffffffffffff81111561268d5761268c611df9565b5b6126978254612422565b6126a28282856125de565b600060209050601f8311600181146126d557600084156126c3578287015190505b6126cd858261264f565b865550612735565b601f1984166126e3866124bf565b60005b8281101561270b578489015182556001820191506020850194506020810190506126e6565b868310156127285784890151612724601f891682612631565b8355505b6001600288020188555050505b505050505050565b600060408201905081810360008301526127578185611d5c565b9050818103602083015261276b8184611d5c565b90509392505050565b7f596f7520617265206e6f74206120726567697374657265642069737375657200600082015250565b60006127aa601f83611d10565b91506127b582612774565b602082019050919050565b600060208201905081810360008301526127d98161279d565b9050919050565b7f496e76616c696420636572746966696361746549640000000000000000000000600082015250565b6000612816601583611d10565b9150612821826127e0565b602082019050919050565b6000602082019050818103600083015261284581612809565b9050919050565b7f496e76616c69642073747564656e742061646472657373000000000000000000600082015250565b6000612882601783611d10565b915061288d8261284c565b602082019050919050565b600060208201905081810360008301526128b181612875565b9050919050565b7f416c726561647920697373756564000000000000000000000000000000000000600082015250565b60006128ee600e83611d10565b91506128f9826128b8565b602082019050919050565b6000602082019050818103600083015261291d816128e1565b9050919050565b60008154905061293381612422565b9050919050565b60008190508160005260206000209050919050565b81810361295d575050612a35565b61296682612924565b67ffffffffffffffff81111561297f5761297e611df9565b5b6129898254612422565b6129948282856125de565b6000601f8311600181146129c357600084156129b1578287015490505b6129bb858261264f565b865550612a2e565b601f1984166129d18761293a565b96506129dc866124bf565b60005b82811015612a04578489015482556001820191506001850194506020810190506129df565b86831015612a215784890154612a1d601f891682612631565b8355505b6001600288020188555050505b5050505050505b565b6000604082019050612a4c60008301856120ab565b612a5960208301846120d3565b9392505050565b7f496e76616c696420766572696669657220616464726573730000000000000000600082015250565b6000612a96601883611d10565b9150612aa182612a60565b602082019050919050565b60006020820190508181036000830152612ac581612a89565b9050919050565b7f416c726561647920612076657269666965720000000000000000000000000000600082015250565b6000612b02601283611d10565b9150612b0d82612acc565b602082019050919050565b60006020820190508181036000830152612b3181612af5565b9050919050565b7f4365727469666963617465206e6f7420666f756e640000000000000000000000600082015250565b6000612b6e601583611d10565b9150612b7982612b38565b602082019050919050565b60006020820190508181036000830152612b9d81612b61565b9050919050565b7f4f6e6c79206f726967696e616c206973737565722063616e207265766f6b6500600082015250565b6000612bda601f83611d10565b9150612be582612ba4565b602082019050919050565b60006020820190508181036000830152612c0981612bcd565b9050919050565b7f416c7265616479207265766f6b65640000000000000000000000000000000000600082015250565b6000612c46600f83611d10565b9150612c5182612c10565b602082019050919050565b60006020820190508181036000830152612c7581612c39565b9050919050565b6000602082019050612c9160008301846120d3565b92915050565b7f4e487b7100000000000000000000000000000000000000000000000000000000600052603260045260246000fd5b7f4e487b7100000000000000000000000000000000000000000000000000000000600052601160045260246000fd5b6000612d00826120c9565b91507fffffffffffffffffffffffffffffffffffffffffffffffffffffffffffffffff8203612d3257612d31612cc6565b5b60018201905091905056fea26469706673582212206bac078bb5078edd3a7712ab1a47af7653b7809019cf60d1d109dee57c8ce85064736f6c63430008110033",
  "linkReferences": {},
  "deployedLinkReferences": {}
}