{
  "_format": "hh-sol-artifact-1",
  "contractName": "CertificateRegistry",
  "sourceName": "contracts/CertificateRegistry.sol",
  "abi": [
    {
      "anonymous": false,
      "inputs": [
        {
          "indexed": true,
          "internalType": "bytes32",
          "name": "certificateId",
          "type": "bytes32"
        },
        {
          "indexed": true,
          "internalType": "address",
          "name": "student",
          "type": "address"
        },
        {
          "indexed": true,
          "internalType": "address",
          "name": "issuer",
          "type": "address"
        },
        {
          "indexed": false,
          "internalType": "bytes32",
          "name": "fileHash",
          "type": "bytes32"
        },
        {
          "indexed": false,
          "internalType": "uint256",
          "name": "issuedAt",
          "type": "uint256"
        }
      ],
      "name": "CertificateIssued",
      "type": "event"
    },
    {
      "anonymous": false,
      "inputs": [
        {
          "indexed": true,
          "internalType": "bytes32",
          "name": "certificateId",
          "type": "bytes32"
        },
        {
          "indexed": true,
          "internalType": "address",
          "name": "issuer",
          "type": "address"
        },
        {
          "indexed": false,
          "internalType": "uint256",
          "name": "revokedAt",
          "type": "uint256"
        }
      ],
      "name": "CertificateRevoked",
      "type": "event"
    },
    {
      "anonymous": false,
      "inputs": [
        {
          "indexed": true,
          "internalType": "address",
          "name": "issuer",
          "type": "address"
        },
        {
          "indexed": false,
          "internalType": "string",
          "name": "name",
          "type": "string"
        },
        {
          "indexed": false,
          "internalType": "string",
          "name": "instituteId",
          "type": "string"
        }
      ],
      "name": "IssuerRegistered",
      "type": "event"
    },
    {
      "anonymous": false,
      "inputs": [
        {
          "indexed": true,
          "internalType": "address",
          "name": "verifierAddress",
          "type": "address"
        },
        {
          "indexed": true,
          "internalType": "address",
          "name": "registeredBy",
          "type": "address"
        }
      ],
      "name": "VerifierRegistered",
      "type": "event"
    },
    {
      "inputs": [
        {
          "internalType": "address",
          "name": "",
          "type": "address"
        }
      ],
      "name": "approvedIssuers",
      "outputs": [
        {
          "internalType": "bool",
          "name": "",
          "type": "bool"
        }
      ],
      "stateMutability": "view",
      "type": "function"
    },
    {
      "inputs": [
        {
          "internalType": "bytes32",
          "name": "certificateId",
          "type": "bytes32"
        }
      ],
      "name": "getCertificate",
      "outputs": [
        {
          "components": [
            {
              "internalType": "bytes32",
              "name": "fileHash",
              "type": "bytes32"
            },
            {
              "internalType": "string",
              "name": "ipfsHash",
              "type": "string"
            },
            {
              "internalType": "address",
              "name": "student",
              "type": "address"
            },
            {
              "internalType": "address",
              "name": "issuer",
              "type": "address"
            },
            {
              "internalType": "uint256",
              "name": "issuedAt",
              "type": "uint256"
            },
            {
              "internalType": "bool",
              "name": "revoked",
              "type": "bool"
            },
            {
              "internalType": "uint256",
              "name": "revokedAt",
              "type": "uint256"
            },
            {
              "internalType": "string",
              "name": "instituteName",
              "type": "string"
            },
            {
              "internalType": "string",
              "name": "instituteId",
              "type": "string"
            },
            {
              "internalType": "string",
              "name": "studentName",
              "type": "string"
            },
            {
              "internalType": "string",
              "name": "courseName",
              "type": "string"
            }
          ],
          "internalType": "struct CertificateRegistry.Certificate",
          "name": "",
          "type": "tuple"
        }
      ],
      "stateMutability": "view",
      "type": "function"
    },
    {
      "inputs": [
        {
          "internalType": "address",
          "name": "issuer",
          "type": "address"
        }
      ],
      "name": "getCertificateIdsByIssuer",
      "outputs": [
        {
          "internalType": "bytes32[]",
          "name": "",
          "type": "bytes32[]"
        }
      ],
      "stateMutability": "view",
      "type": "function"
    },
    {
      "inputs": [
        {
          "internalType": "address",
          "name": "student",
          "type": "address"
        }
      ],
      "name": "getCertificateIdsByStudent",
      "outputs": [
        {
          "internalType": "bytes32[]",
          "name": "",
          "type": "bytes32[]"
        }
      ],
      "stateMutability": "view",
      "type": "function"
    },
    {
      "inputs": [
        {
          "internalType": "address",
          "name": "",
          "type": "address"
        }
      ],
      "name": "institutes",
      "outputs": [
        {
          "internalType": "string",
          "name": "name",
          "type": "string"
        },
        {
          "internalType": "string",
          "name": "instituteId",
          "type": "string"
        },
        {
          "internalType": "string",
          "name": "location",
          "type": "string"
        },
        {
          "internalType": "bool",
          "name": "exists",
          "type": "bool"
        }
      ],
      "stateMutability": "view",
      "type": "function"
    },
    {
      "inputs": [
        {
          "internalType": "address",
          "name": "addr",
          "type": "address"
        }
      ],
      "name": "isVerifier",
      "outputs": [
        {
          "internalType": "bool",
          "name": "",
          "type": "bool"
        }
      ],
      "stateMutability": "view",
      "type": "function"
    },
    {
      "inputs": [
        {
          "internalType": "bytes32",
          "name": "certificateId",
          "type": "bytes32"
        },
        {
          "internalType": "address",
          "name": "studentAddress",
          "type": "address"
        },
        {
          "internalType": "bytes32",
          "name": "fileHash",
          "type": "bytes32"
        },
        {
          "internalType": "string",
          "name": "ipfsHash",
          "type": "string"
        },
        {
          "internalType": "string",
          "name": "studentName",
          "type": "string"
        },
        {
          "internalType": "string",
          "name": "courseName",
          "type": "string"
        }
      ],
      "name": "issueCertificate",
      "outputs": [],
      "stateMutability": "nonpayable",
      "type": "function"
    },
    {
      "inputs": [
        {
          "internalType": "string",
          "name": "name",
          "type": "string"
        },
        {
          "internalType": "string",
          "name": "instituteId",
          "type": "string"
        },
        {
          "internalType": "string",
          "name": "location",
          "type": "string"
        }
      ],
      "name": "registerIssuer",
      "outputs": [],
      "stateMutability": "nonpayable",
      "type": "function"
    },
    {
      "inputs": [
        {
          "internalType": "address",
          "name": "verifierAddress",
          "type": "address"
        }
      ],
      "name": "registerVerifier",
      "outputs": [],
      "stateMutability": "nonpayable",
      "type": "function"
    },
    {
      "inputs": [
        {
          "internalType": "bytes32",
          "name": "certificateId",
          "type": "bytes32"
        }
      ],
      "name": "revokeCertificate",
      "outputs": [],
      "stateMutability": "nonpayable",
      "type": "function"
    },
    {
      "inputs": [
        {
          "internalType": "bytes32",
          "name": "certificateId",
          "type": "bytes32"
        },
        {
          "internalType": "bytes32",
          "name": "fileHashToCheck",
          "type": "bytes32"
        }
      ],
      "name": "verifyCertificate",
      "outputs": [
        {
          "internalType": "bool",
          "name": "",
          "type": "bool"
        }
      ],
      "stateMutability": "view",
      "type": "function"
    }
  ],
  "bytecode": "0x608060405234801561001057600080fd5b506133c7806100206000396000f3fe608060405234801561001057600080fd5b50600436106100a95760003560e01c80637e0e46b7116100715780637e0e46b71461018a5780638096373e146101bd578063c639e8c5146101d9578063c6cbc52a146101f5578063f333fe0814610211578063fb87b9e714610241576100a9565b80630e82cf04146100ae5780631ad34603146100ca5780631f75435d146100fa578063331052181461012a57806367201dfe1461015a575b600080fd5b6100c860048036038101906100c391906121df565b610271565b005b6100e460048036038101906100df91906122ce565b610b20565b6040516100f191906123b9565b60405180910390f35b610114600480360381019061010f91906123db565b610bb7565b6040516101219190612436565b60405180910390f35b610144600480360381019061013f91906122ce565b6110ae565b6040516101519190612436565b60405180910390f35b610174600480360381019061016f91906122ce565b611104565b60405161018191906123b9565b60405180910390f35b6101a4600480360381019061019f91906122ce565b61119b565b6040516101b494939291906124e1565b60405180910390f35b6101d760048036038101906101d2919061253b565b611370565b005b6101f360048036038101906101ee91906122ce565b611775565b005b61020f600480360381019061020a91906125ef565b6119b1565b005b61022b600480360381019061022691906125ef565b611bf7565b60405161023891906127a8565b60405180910390f35b61025b600480360381019061025691906122ce565b612031565b6040516102689190612436565b60405180910390f35b6000803373ffffffffffffffffffffffffffffffffffffffff1673ffffffffffffffffffffffffffffffffffffffff16815260200190815260200160002060009054906101000a900460ff166102fc576040517f08c379a00000000000000000000000000000000000000000000000000000000081526004016102f390612816565b60405180910390fd5b6000801b8903610341576040517f08c379a000000000000000000000000000000000000000000000000000000000815260040161033890612882565b60405180910390fd5b600073ffffffffffffffffffffffffffffffffffffffff168873ffffffffffffffffffffffffffffffffffffffff16036103b0576040517f08c379a00000000000000000000000000000000000000000000000000000000081526004016103a7906128ee565b60405180910390fd5b6000600460008b81526020019081526020016000206004015414610409576040517f08c379a00000000000000000000000000000000000000000000000000000000081526004016104009061295a565b60405180910390fd5b6000801b870361044e576040517f08c379a0000000000000000000000000000000000000000000000000000000008152600401610445906129c6565b60405180910390fd5b60008484905011610494576040517f08c379a000000000000000000000000000000000000000000000000000000000815260040161048b90612a32565b60405180910390fd5b600082829050116104da576040517f08c379a00000000000000000000000000000000000000000000000000000000081526004016104d190612a9e565b60405180910390fd5b6000600260003373ffffffffffffffffffffffffffffffffffffffff1673ffffffffffffffffffffffffffffffffffffffff16815260200190815260200160002060405180608001604052908160008201805461053690612aed565b80601f016020809104026020016040519081016040528092919081815260200182805461056290612aed565b80156105af5780601f10610584576101008083540402835291602001916105af565b820191906000526020600020905b81548152906001019060200180831161059257829003601f168201915b505050505081526020016001820180546105c890612aed565b80601f01602080910402602001604051908101604052809291908181526020018280546105f490612aed565b80156106415780601f1061061657610100808354040283529160200191610641565b820191906000526020600020905b81548152906001019060200180831161062457829003601f168201915b5050505050815260200160028201805461065a90612aed565b80601f016020809104026020016040519081016040528092919081815260200182805461068690612aed565b80156106d35780601f106106a8576101008083540402835291602001916106d3565b820191906000526020600020905b8154815290600101906020018083116106b657829003601f168201915b505050505081526020016003820160009054906101000a900460ff1615151515815250509050806060015161073d576040517f08c379a000000000000000000000000000000000000000000000000000000000815260040161073490612b6a565b60405180910390fd5b60405180610160016040528089815260200188888080601f016020809104026020016040519081016040528093929190818152602001838380828437600081840152601f19601f8201169050808301925050505050505081526020018a73ffffffffffffffffffffffffffffffffffffffff1681526020013373ffffffffffffffffffffffffffffffffffffffff16815260200142815260200160001515815260200160008152602001826000015181526020018260200151815260200186868080601f016020809104026020016040519081016040528093929190818152602001838380828437600081840152601f19601f82011690508083019250505050505050815260200184848080601f016020809104026020016040519081016040528093929190818152602001838380828437600081840152601f19601f82011690508083019250505050505050815250600460008c81526020019081526020016000206000820151816000015560208201518160010190816108bf9190612d65565b5060408201518160020160006101000a81548173ffffffffffffffffffffffffffffffffffffffff021916908373ffffffffffffffffffffffffffffffffffffffff16021790555060608201518160030160006101000a81548173ffffffffffffffffffffffffffffffffffffffff021916908373ffffffffffffffffffffffffffffffffffffffff1602179055506080820151816004015560a08201518160050160006101000a81548160ff02191690831515021790555060c0820151816006015560e08201518160070190816109979190612d65565b506101008201518160080190816109ae9190612d65565b506101208201518160090190816109c59190612d65565b5061014082015181600a0190816109dc9190612d65565b50905050600560003373ffffffffffffffffffffffffffffffffffffffff1673ffffffffffffffffffffffffffffffffffffffff1681526020019081526020016000208a9080600181540180825580915050600190039060005260206000200160009091909190915055600660008a73ffffffffffffffffffffffffffffffffffffffff1673ffffffffffffffffffffffffffffffffffffffff1681526020019081526020016000208a90806001815401808255809150506001900390600052602060002001600090919091909150553373ffffffffffffffffffffffffffffffffffffffff168973ffffffffffffffffffffffffffffffffffffffff168b7f68f98d13b94c9094a5de875951af464c68006a4268e07d480c936454ece6a6348b42604051610b0c929190612e55565b60405180910390a450505050505050505050565b6060600660008373ffffffffffffffffffffffffffffffffffffffff1673ffffffffffffffffffffffffffffffffffffffff168152602001908152602001600020805480602002602001604051908101604052809291908181526020018280548015610bab57602002820191906000526020600020905b815481526020019060010190808311610b97575b50505050509050919050565b6000600360003373ffffffffffffffffffffffffffffffffffffffff1673ffffffffffffffffffffffffffffffffffffffff16815260200190815260200160002060009054906101000a900460ff1680610c5957506000803373ffffffffffffffffffffffffffffffffffffffff1673ffffffffffffffffffffffffffffffffffffffff16815260200190815260200160002060009054906101000a900460ff165b610c98576040517f08c379a0000000000000000000000000000000000000000000000000000000008152600401610c8f90612eca565b60405180910390fd5b6000600460008581526020019081526020016000206040518061016001604052908160008201548152602001600182018054610cd390612aed565b80601f0160208091040260200160405190810160405280929190818152602001828054610cff90612aed565b8015610d4c5780601f10610d2157610100808354040283529160200191610d4c565b820191906000526020600020905b815481529060010190602001808311610d2f57829003601f168201915b505050505081526020016002820160009054906101000a900473ffffffffffffffffffffffffffffffffffffffff1673ffffffffffffffffffffffffffffffffffffffff1673ffffffffffffffffffffffffffffffffffffffff1681526020016003820160009054906101000a900473ffffffffffffffffffffffffffffffffffffffff1673ffffffffffffffffffffffffffffffffffffffff1673ffffffffffffffffffffffffffffffffffffffff168152602001600482015481526020016005820160009054906101000a900460ff1615151515815260200160068201548152602001600782018054610e4090612aed565b80601f0160208091040260200160405190810160405280929190818152602001828054610e6c90612aed565b8015610eb95780601f10610e8e57610100808354040283529160200191610eb9565b820191906000526020600020905b815481529060010190602001808311610e9c57829003601f168201915b50505050508152602001600882018054610ed290612aed565b80601f0160208091040260200160405190810160405280929190818152602001828054610efe90612aed565b8015610f4b5780601f10610f2057610100808354040283529160200191610f4b565b820191906000526020600020905b815481529060010190602001808311610f2e57829003601f168201915b50505050508152602001600982018054610f6490612aed565b80601f0160208091040260200160405190810160405280929190818152602001828054610f9090612aed565b8015610fdd5780601f10610fb257610100808354040283529160200191610fdd565b820191906000526020600020905b815481529060010190602001808311610fc057829003601f168201915b50505050508152602001600a82018054610ff690612aed565b80601f016020809104026020016040519081016040528092919081815260200182805461102290612aed565b801561106f5780601f106110445761010080835404028352916020019161106f565b820191906000526020600020905b81548152906001019060200180831161105257829003601f168201915b505050505081525050905060008160800151148061108e57508060a001515b1561109d5760009150506110a8565b828160000151149150505b92915050565b6000600360008373ffffffffffffffffffffffffffffffffffffffff1673ffffffffffffffffffffffffffffffffffffffff16815260200190815260200160002060009054906101000a900460ff169050919050565b6060600560008373ffffffffffffffffffffffffffffffffffffffff1673ffffffffffffffffffffffffffffffffffffffff16815260200190815260200160002080548060200260200160405190810160405280929190818152602001828054801561118f57602002820191906000526020600020905b81548152602001906001019080831161117b575b50505050509050919050565b60026020528060005260406000206000915090508060000180546111be90612aed565b80601f01602080910402602001604051908101604052809291908181526020018280546111ea90612aed565b80156112375780601f1061120c57610100808354040283529160200191611237565b820191906000526020600020905b81548152906001019060200180831161121a57829003601f168201915b50505050509080600101805461124c90612aed565b80601f016020809104026020016040519081016040528092919081815260200182805461127890612aed565b80156112c55780601f1061129a576101008083540402835291602001916112c5565b820191906000526020600020905b8154815290600101906020018083116112a857829003601f168201915b5050505050908060020180546112da90612aed565b80601f016020809104026020016040519081016040528092919081815260200182805461130690612aed565b80156113535780601f1061132857610100808354040283529160200191611353565b820191906000526020600020905b81548152906001019060200180831161133657829003601f168201915b5050505050908060030160009054906101000a900460ff16905084565b6000803373ffffffffffffffffffffffffffffffffffffffff1673ffffffffffffffffffffffffffffffffffffffff16815260200190815260200160002060009054906101000a900460ff16156113fc576040517f08c379a00000000000000000000000000000000000000000000000000000000081526004016113f390612f36565b60405180910390fd5b60008686905011611442576040517f08c379a000000000000000000000000000000000000000000000000000000000815260040161143990612fa2565b60405180910390fd5b60008484905011611488576040517f08c379a000000000000000000000000000000000000000000000000000000000815260040161147f9061300e565b60405180910390fd5b6001848460405161149a92919061306d565b908152602001604051809103902060009054906101000a900460ff16156114f6576040517f08c379a00000000000000000000000000000000000000000000000000000000081526004016114ed906130d2565b60405180910390fd5b60016000803373ffffffffffffffffffffffffffffffffffffffff1673ffffffffffffffffffffffffffffffffffffffff16815260200190815260200160002060006101000a81548160ff021916908315150217905550600180858560405161156092919061306d565b908152602001604051809103902060006101000a81548160ff021916908315150217905550604051806080016040528087878080601f016020809104026020016040519081016040528093929190818152602001838380828437600081840152601f19601f82011690508083019250505050505050815260200185858080601f016020809104026020016040519081016040528093929190818152602001838380828437600081840152601f19601f82011690508083019250505050505050815260200183838080601f016020809104026020016040519081016040528093929190818152602001838380828437600081840152601f19601f82011690508083019250505050505050815260200160011515815250600260003373ffffffffffffffffffffffffffffffffffffffff1673ffffffffffffffffffffffffffffffffffffffff16815260200190815260200160002060008201518160000190816116c99190612d65565b5060208201518160010190816116df9190612d65565b5060408201518160020190816116f59190612d65565b5060608201518160030160006101000a81548160ff0219169083151502179055509050503373ffffffffffffffffffffffffffffffffffffffff167f2b062b4e0857383c98aacd16bcd2714030d81ad54eb91dd1885634442438665187878787604051611765949392919061311f565b60405180910390a2505050505050565b6000803373ffffffffffffffffffffffffffffffffffffffff1673ffffffffffffffffffffffffffffffffffffffff16815260200190815260200160002060009054906101000a900460ff16611800576040517f08c379a00000000000000000000000000000000000000000000000000000000081526004016117f790612816565b60405180910390fd5b600073ffffffffffffffffffffffffffffffffffffffff168173ffffffffffffffffffffffffffffffffffffffff160361186f576040517f08c379a0000000000000000000000000000000000000000000000000000000008152600401611866906131a6565b60405180910390fd5b600360008273ffffffffffffffffffffffffffffffffffffffff1673ffffffffffffffffffffffffffffffffffffffff16815260200190815260200160002060009054906101000a900460ff16156118fc576040517f08c379a00000000000000000000000000000000000000000000000000000000081526004016118f390613212565b60405180910390fd5b6001600360008373ffffffffffffffffffffffffffffffffffffffff1673ffffffffffffffffffffffffffffffffffffffff16815260200190815260200160002060006101000a81548160ff0219169083151502179055503373ffffffffffffffffffffffffffffffffffffffff168173ffffffffffffffffffffffffffffffffffffffff167f40a3770fa32da25d352c90e0a204ef9c13d3756eb9e02b5c8d2b797fec18545360405160405180910390a350565b6000803373ffffffffffffffffffffffffffffffffffffffff1673ffffffffffffffffffffffffffffffffffffffff16815260200190815260200160002060009054906101000a900460ff16611a3c576040517f08c379a0000000000000000000000000000000000000000000000000000000008152600401611a3390612816565b60405180910390fd5b60006004600083815260200190815260200160002090506000816004015403611a9a576040517f08c379a0000000000000000000000000000000000000000000000000000000008152600401611a919061327e565b60405180910390fd5b3373ffffffffffffffffffffffffffffffffffffffff168160030160009054906101000a900473ffffffffffffffffffffffffffffffffffffffff1673ffffffffffffffffffffffffffffffffffffffff1614611b2c576040517f08c379a0000000000000000000000000000000000000000000000000000000008152600401611b23906132ea565b60405180910390fd5b8060050160009054906101000a900460ff1615611b7e576040517f08c379a0000000000000000000000000000000000000000000000000000000008152600401611b7590613356565b60405180910390fd5b60018160050160006101000a81548160ff0219169083151502179055504281600601819055503373ffffffffffffffffffffffffffffffffffffffff16827f85fe6dd2dfc4757558754564c7ff020182ec3c918257c2ff3a217a63791ec24f42604051611beb9190613376565b60405180910390a35050565b611bff612051565b6000600460008481526020019081526020016000206040518061016001604052908160008201548152602001600182018054611c3a90612aed565b80601f0160208091040260200160405190810160405280929190818152602001828054611c6690612aed565b8015611cb35780601f10611c8857610100808354040283529160200191611cb3565b820191906000526020600020905b815481529060010190602001808311611c9657829003601f168201915b505050505081526020016002820160009054906101000a900473ffffffffffffffffffffffffffffffffffffffff1673ffffffffffffffffffffffffffffffffffffffff1673ffffffffffffffffffffffffffffffffffffffff1681526020016003820160009054906101000a900473ffffffffffffffffffffffffffffffffffffffff1673ffffffffffffffffffffffffffffffffffffffff1673ffffffffffffffffffffffffffffffffffffffff168152602001600482015481526020016005820160009054906101000a900460ff1615151515815260200160068201548152602001600782018054611da790612aed565b80601f0160208091040260200160405190810160405280929190818152602001828054611dd390612aed565b8015611e205780601f10611df557610100808354040283529160200191611e20565b820191906000526020600020905b815481529060010190602001808311611e0357829003601f168201915b50505050508152602001600882018054611e3990612aed565b80601f0160208091040260200160405190810160405280929190818152602001828054611e6590612aed565b8015611eb25780601f10611e8757610100808354040283529160200191611eb2565b820191906000526020600020905b815481529060010190602001808311611e9557829003601f168201915b50505050508152602001600982018054611ecb90612aed565b80601f0160208091040260200160405190810160405280929190818152602001828054611ef790612aed565b8015611f445780601f10611f1957610100808354040283529160200191611f44565b820191906000526020600020905b815481529060010190602001808311611f2757829003601f168201915b50505050508152602001600a82018054611f5d90612aed565b80601f0160208091040260200160405190810160405280929190818152602001828054611f8990612aed565b8015611fd65780601f10611fab57610100808354040283529160200191611fd6565b820191906000526020600020905b815481529060010190602001808311611fb957829003601f168201915b50505050508152505090506000816080015103612028576040517f08c379a000000000000000000000000000000000000000000000000000000000815260040161201f9061327e565b60405180910390fd5b80915050919050565b60006020528060005260406000206000915054906101000a900460ff1681565b6040518061016001604052806000801916815260200160608152602001600073ffffffffffffffffffffffffffffffffffffffff168152602001600073ffffffffffffffffffffffffffffffffffffffff1681526020016000815260200160001515815260200160008152602001606081526020016060815260200160608152602001606081525090565b600080fd5b600080fd5b6000819050919050565b6120f9816120e6565b811461210457600080fd5b50565b600081359050612116816120f0565b92915050565b600073ffffffffffffffffffffffffffffffffffffffff82169050919050565b60006121478261211c565b9050919050565b6121578161213c565b811461216257600080fd5b50565b6000813590506121748161214e565b92915050565b600080fd5b600080fd5b600080fd5b60008083601f84011261219f5761219e61217a565b5b8235905067ffffffffffffffff8111156121bc576121bb61217f565b5b6020830191508360018202830111156121d8576121d7612184565b5b9250929050565b600080600080600080600080600060c08a8c031215612201576122006120dc565b5b600061220f8c828d01612107565b99505060206122208c828d01612165565b98505060406122318c828d01612107565b97505060608a013567ffffffffffffffff811115612252576122516120e1565b5b61225e8c828d01612189565b965096505060808a013567ffffffffffffffff811115612281576122806120e1565b5b61228d8c828d01612189565b945094505060a08a013567ffffffffffffffff8111156122b0576122af6120e1565b5b6122bc8c828d01612189565b92509250509295985092959850929598565b6000602082840312156122e4576122e36120dc565b5b60006122f284828501612165565b91505092915050565b600081519050919050565b600082825260208201905092915050565b6000819050602082019050919050565b612330816120e6565b82525050565b60006123428383612327565b60208301905092915050565b6000602082019050919050565b6000612366826122fb565b6123708185612306565b935061237b83612317565b8060005b838110156123ac5781516123938882612336565b975061239e8361234e565b92505060018101905061237f565b5085935050505092915050565b600060208201905081810360008301526123d3818461235b565b905092915050565b600080604083850312156123f2576123f16120dc565b5b600061240085828601612107565b925050602061241185828601612107565b9150509250929050565b60008115159050919050565b6124308161241b565b82525050565b600060208201905061244b6000830184612427565b92915050565b600081519050919050565b600082825260208201905092915050565b60005b8381101561248b578082015181840152602081019050612470565b60008484015250505050565b6000601f19601f8301169050919050565b60006124b382612451565b6124bd818561245c565b93506124cd81856020860161246d565b6124d681612497565b840191505092915050565b600060808201905081810360008301526124fb81876124a8565b9050818103602083015261250f81866124a8565b9050818103604083015261252381856124a8565b90506125326060830184612427565b95945050505050565b60008060008060008060608789031215612558576125576120dc565b5b600087013567ffffffffffffffff811115612576576125756120e1565b5b61258289828a01612189565b9650965050602087013567ffffffffffffffff8111156125a5576125a46120e1565b5b6125b189828a01612189565b9450945050604087013567ffffffffffffffff8111156125d4576125d36120e1565b5b6125e089828a01612189565b92509250509295509295509295565b600060208284031215612605576126046120dc565b5b600061261384828501612107565b91505092915050565b600082825260208201905092915050565b600061263882612451565b612642818561261c565b935061265281856020860161246d565b61265b81612497565b840191505092915050565b61266f8161213c565b82525050565b6000819050919050565b61268881612675565b82525050565b6126978161241b565b82525050565b6000610160830160008301516126b66000860182612327565b50602083015184820360208601526126ce828261262d565b91505060408301516126e36040860182612666565b5060608301516126f66060860182612666565b506080830151612709608086018261267f565b5060a083015161271c60a086018261268e565b5060c083015161272f60c086018261267f565b5060e083015184820360e0860152612747828261262d565b915050610100830151848203610100860152612763828261262d565b91505061012083015184820361012086015261277f828261262d565b91505061014083015184820361014086015261279b828261262d565b9150508091505092915050565b600060208201905081810360008301526127c2818461269d565b905092915050565b7f4e6f742061207265676973746572656420697373756572000000000000000000600082015250565b600061280060178361245c565b915061280b826127ca565b602082019050919050565b6000602082019050818103600083015261282f816127f3565b9050919050565b7f496e76616c696420636572746966696361746549640000000000000000000000600082015250565b600061286c60158361245c565b915061287782612836565b602082019050919050565b6000602082019050818103600083015261289b8161285f565b9050919050565b7f496e76616c69642073747564656e742061646472657373000000000000000000600082015250565b60006128d860178361245c565b91506128e3826128a2565b602082019050919050565b60006020820190508181036000830152612907816128cb565b9050919050565b7f416c726561647920697373756564000000000000000000000000000000000000600082015250565b6000612944600e8361245c565b915061294f8261290e565b602082019050919050565b6000602082019050818103600083015261297381612937565b9050919050565b7f496e76616c69642066696c652068617368000000000000000000000000000000600082015250565b60006129b060118361245c565b91506129bb8261297a565b602082019050919050565b600060208201905081810360008301526129df816129a3565b9050919050565b7f53747564656e74206e616d652072657175697265640000000000000000000000600082015250565b6000612a1c60158361245c565b9150612a27826129e6565b602082019050919050565b60006020820190508181036000830152612a4b81612a0f565b9050919050565b7f436f75727365206e616d65207265717569726564000000000000000000000000600082015250565b6000612a8860148361245c565b9150612a9382612a52565b602082019050919050565b60006020820190508181036000830152612ab781612a7b565b9050919050565b7f4e487b7100000000000000000000000000000000000000000000000000000000600052602260045260246000fd5b60006002820490506001821680612b0557607f821691505b602082108103612b1857612b17612abe565b5b50919050565b7f496e73746974757465206e6f7420726567697374657265640000000000000000600082015250565b6000612b5460188361245c565b9150612b5f82612b1e565b602082019050919050565b60006020820190508181036000830152612b8381612b47565b9050919050565b7f4e487b7100000000000000000000000000000000000000000000000000000000600052604160045260246000fd5b60008190508160005260206000209050919050565b60006020601f8301049050919050565b600082821b905092915050565b600060088302612c1b7fffffffffffffffffffffffffffffffffffffffffffffffffffffffffffffffff82612bde565b612c258683612bde565b95508019841693508086168417925050509392505050565b6000819050919050565b6000612c62612c5d612c5884612675565b612c3d565b612675565b9050919050565b6000819050919050565b612c7c83612c47565b612c90612c8882612c69565b848454612beb565b825550505050565b600090565b612ca5612c98565b612cb0818484612c73565b505050565b5b81811015612cd457612cc9600082612c9d565b600181019050612cb6565b5050565b601f821115612d1957612cea81612bb9565b612cf384612bce565b81016020851015612d02578190505b612d16612d0e85612bce565b830182612cb5565b50505b505050565b600082821c905092915050565b6000612d3c60001984600802612d1e565b1980831691505092915050565b6000612d558383612d2b565b9150826002028217905092915050565b612d6e82612451565b67ffffffffffffffff811115612d8757612d86612b8a565b5b612d918254612aed565b612d9c828285612cd8565b600060209050601f831160018114612dcf5760008415612dbd578287015190505b612dc78582612d49565b865550612e2f565b601f198416612ddd86612bb9565b60005b82811015612e0557848901518255600182019150602085019450602081019050612de0565b86831015612e225784890151612e1e601f891682612d2b565b8355505b6001600288020188555050505b505050505050565b612e40816120e6565b82525050565b612e4f81612675565b82525050565b6000604082019050612e6a6000830185612e37565b612e776020830184612e46565b9392505050565b7f4e6f7420617574686f72697a6564000000000000000000000000000000000000600082015250565b6000612eb4600e8361245c565b9150612ebf82612e7e565b602082019050919050565b60006020820190508181036000830152612ee381612ea7565b9050919050565b7f49737375657220616c7265616479207265676973746572656400000000000000600082015250565b6000612f2060198361245c565b9150612f2b82612eea565b602082019050919050565b60006020820190508181036000830152612f4f81612f13565b9050919050565b7f496e73746974757465206e616d65207265717569726564000000000000000000600082015250565b6000612f8c60178361245c565b9150612f9782612f56565b602082019050919050565b60006020820190508181036000830152612fbb81612f7f565b9050919050565b7f496e737469747574652049442072657175697265640000000000000000000000600082015250565b6000612ff860158361245c565b915061300382612fc2565b602082019050919050565b6000602082019050818103600083015261302781612feb565b9050919050565b600081905092915050565b82818337600083830152505050565b6000613054838561302e565b9350613061838584613039565b82840190509392505050565b600061307a828486613048565b91508190509392505050565b7f496e7374697475746520494420616c7265616479207573656400000000000000600082015250565b60006130bc60198361245c565b91506130c782613086565b602082019050919050565b600060208201905081810360008301526130eb816130af565b9050919050565b60006130fe838561245c565b935061310b838584613039565b61311483612497565b840190509392505050565b6000604082019050818103600083015261313a8186886130f2565b9050818103602083015261314f8184866130f2565b905095945050505050565b7f496e76616c696420616464726573730000000000000000000000000000000000600082015250565b6000613190600f8361245c565b915061319b8261315a565b602082019050919050565b600060208201905081810360008301526131bf81613183565b9050919050565b7f416c726561647920766572696669657200000000000000000000000000000000600082015250565b60006131fc60108361245c565b9150613207826131c6565b602082019050919050565b6000602082019050818103600083015261322b816131ef565b9050919050565b7f4365727469666963617465206e6f7420666f756e640000000000000000000000600082015250565b600061326860158361245c565b915061327382613232565b602082019050919050565b600060208201905081810360008301526132978161325b565b9050919050565b7f4e6f74206f726967696e616c2069737375657200000000000000000000000000600082015250565b60006132d460138361245c565b91506132df8261329e565b602082019050919050565b60006020820190508181036000830152613303816132c7565b9050919050565b7f416c7265616479207265766f6b65640000000000000000000000000000000000600082015250565b6000613340600f8361245c565b915061334b8261330a565b602082019050919050565b6000602082019050818103600083015261336f81613333565b9050919050565b600060208201905061338b6000830184612e46565b9291505056fea2646970667358221220158af8549bd8f29a183871fe579a715279e494bca63c6948a662859566d480ab64736f6c63430008110033",
  "linkReferences": {},
  "deployedLinkReferences": {}
}