{
  "_format": "hh-sol-artifact-1",
  "contractName": "CertificateRegistry",
  "sourceName": "contracts/CertificateRegistry.sol",
  "abi": [
    {
      "anonymous": false,
      "inputs": [
        {
          "indexed": true,
          "internalType": "bytes32",
          "name": "certificateId",
          "type": "bytes32"
        },
        {
          "indexed": true,
          "internalType": "address",
          "name": "student",
          "type": "address"
        },
        {
          "indexed": true,
          "internalType": "address",
          "name": "issuer",
          "type": "address"
        },
        {
          "indexed": false,
          "internalType": "bytes32",
          "name": "fileHash",
          "type": "bytes32"
        },
        {
          "indexed": false,
          "internalType": "uint256",
          "name": "issuedAt",
          "type": "uint256"
        }
      ],
      "name": "CertificateIssued",
      "type": "event"
    },
    {
      "anonymous": false,
      "inputs": [
        {
          "indexed": true,
          "internalType": "bytes32",
          "name": "certificateId",
          "type": "bytes32"
        },
        {
          "indexed": true,
          "internalType": "address",
          "name": "issuer",
          "type": "address"
        },
        {
          "indexed": false,
          "internalType": "uint256",
          "name": "revokedAt",
          "type": "uint256"
        }
      ],
      "name": "CertificateRevoked",
      "type": "event"
    },
    {
      "anonymous": false,
      "inputs": [
        {
          "indexed": true,
          "internalType": "address",
          "name": "issuer",
          "type": "address"
        },
        {
          "indexed": false,
          "internalType": "string",
          "name": "name",
          "type": "string"
        },
        {
          "indexed": false,
          "internalType": "string",
          "name": "instituteId",
          "type": "string"
        }
      ],
      "name": "IssuerRegistered",
      "type": "event"
    },
    {
      "anonymous": false,
      "inputs": [
        {
          "indexed": true,
          "internalType": "address",
          "name": "verifierAddress",
          "type": "address"
        },
        {
          "indexed": true,
          "internalType": "address",
          "name": "registeredBy",
          "type": "address"
        }
      ],
      "name": "VerifierRegistered",
      "type": "event"
    },
    {
      "inputs": [
        {
          "internalType": "address",
          "name": "",
          "type": "address"
        }
      ],
      "name": "approvedIssuers",
      "outputs": [
        {
          "internalType": "bool",
          "name": "",
          "type": "bool"
        }
      ],
      "stateMutability": "view",
      "type": "function"
    },
    {
      "inputs": [
        {
          "internalType": "bytes32",
          "name": "certificateId",
          "type": "bytes32"
        }
      ],
      "name": "getCertificate",
      "outputs": [
        {
          "internalType": "bytes32",
          "name": "fileHash",
          "type": "bytes32"
        },
        {
          "internalType": "address",
          "name": "student",
          "type": "address"
        },
        {
          "internalType": "address",
          "name": "issuer",
          "type": "address"
        },
        {
          "internalType": "uint256",
          "name": "issuedAt",
          "type": "uint256"
        },
        {
          "internalType": "bool",
          "name": "revoked",
          "type": "bool"
        },
        {
          "internalType": "uint256",
          "name": "revokedAt",
          "type": "uint256"
        },
        {
          "internalType": "string",
          "name": "instituteName",
          "type": "string"
        },
        {
          "internalType": "string",
          "name": "instituteId",
          "type": "string"
        },
        {
          "internalType": "string",
          "name": "studentName",
          "type": "string"
        },
        {
          "internalType": "string",
          "name": "courseName",
          "type": "string"
        }
      ],
      "stateMutability": "view",
      "type": "function"
    },
    {
      "inputs": [
        {
          "internalType": "address",
          "name": "issuer",
          "type": "address"
        }
      ],
      "name": "getCertificatesByIssuer",
      "outputs": [
        {
          "internalType": "bytes32[]",
          "name": "ids",
          "type": "bytes32[]"
        },
        {
          "components": [
            {
              "internalType": "bytes32",
              "name": "fileHash",
              "type": "bytes32"
            },
            {
              "internalType": "address",
              "name": "student",
              "type": "address"
            },
            {
              "internalType": "address",
              "name": "issuer",
              "type": "address"
            },
            {
              "internalType": "uint256",
              "name": "issuedAt",
              "type": "uint256"
            },
            {
              "internalType": "bool",
              "name": "revoked",
              "type": "bool"
            },
            {
              "internalType": "uint256",
              "name": "revokedAt",
              "type": "uint256"
            },
            {
              "internalType": "string",
              "name": "instituteName",
              "type": "string"
            },
            {
              "internalType": "string",
              "name": "instituteId",
              "type": "string"
            },
            {
              "internalType": "string",
              "name": "studentName",
              "type": "string"
            },
            {
              "internalType": "string",
              "name": "courseName",
              "type": "string"
            }
          ],
          "internalType": "struct CertificateRegistry.Certificate[]",
          "name": "certs",
          "type": "tuple[]"
        }
      ],
      "stateMutability": "view",
      "type": "function"
    },
    {
      "inputs": [
        {
          "internalType": "address",
          "name": "",
          "type": "address"
        }
      ],
      "name": "institutes",
      "outputs": [
        {
          "internalType": "string",
          "name": "name",
          "type": "string"
        },
        {
          "internalType": "string",
          "name": "instituteId",
          "type": "string"
        },
        {
          "internalType": "string",
          "name": "location",
          "type": "string"
        },
        {
          "internalType": "bool",
          "name": "exists",
          "type": "bool"
        }
      ],
      "stateMutability": "view",
      "type": "function"
    },
    {
      "inputs": [
        {
          "internalType": "address",
          "name": "addr",
          "type": "address"
        }
      ],
      "name": "isVerifier",
      "outputs": [
        {
          "internalType": "bool",
          "name": "",
          "type": "bool"
        }
      ],
      "stateMutability": "view",
      "type": "function"
    },
    {
      "inputs": [
        {
          "internalType": "bytes32",
          "name": "certificateId",
          "type": "bytes32"
        },
        {
          "internalType": "address",
          "name": "studentAddress",
          "type": "address"
        },
        {
          "internalType": "bytes32",
          "name": "fileHash",
          "type": "bytes32"
        },
        {
          "internalType": "string",
          "name": "studentName",
          "type": "string"
        },
        {
          "internalType": "string",
          "name": "courseName",
          "type": "string"
        }
      ],
      "name": "issueCertificate",
      "outputs": [],
      "stateMutability": "nonpayable",
      "type": "function"
    },
    {
      "inputs": [
        {
          "internalType": "string",
          "name": "name",
          "type": "string"
        },
        {
          "internalType": "string",
          "name": "instituteId",
          "type": "string"
        },
        {
          "internalType": "string",
          "name": "location",
          "type": "string"
        }
      ],
      "name": "registerIssuer",
      "outputs": [],
      "stateMutability": "nonpayable",
      "type": "function"
    },
    {
      "inputs": [
        {
          "internalType": "address",
          "name": "verifierAddress",
          "type": "address"
        }
      ],
      "name": "registerVerifier",
      "outputs": [],
      "stateMutability": "nonpayable",
      "type": "function"
    },
    {
      "inputs": [
        {
          "internalType": "bytes32",
          "name": "certificateId",
          "type": "bytes32"
        }
      ],
      "name": "revokeCertificate",
      "outputs": [],
      "stateMutability": "nonpayable",
      "type": "function"
    },
    {
      "inputs": [
        {
          "internalType": "bytes32",
          "name": "certificateId",
          "type": "bytes32"
        },
        {
          "internalType": "bytes32",
          "name": "fileHashToCheck",
          "type": "bytes32"
        }
      ],
      "name": "verifyCertificate",
      "outputs": [
        {
          "internalType": "bool",
          "name": "isValid",
          "type": "bool"
        }
      ],
      "stateMutability": "view",
      "type": "function"
    }
  ],
  "bytecode": "0x608060405234801561001057600080fd5b50612e3c806100206000396000f3fe608060405234801561001057600080fd5b506004361061009e5760003560e01c8063c639e8c511610066578063c639e8c51461016e578063c6cbc52a1461018a578063f333fe08146101a6578063fb87b9e7146101df578063feef67141461020f5761009e565b80631f75435d146100a357806333105218146100d35780637e0e46b7146101035780638096373e14610136578063969f7a4e14610152575b600080fd5b6100bd60048036038101906100b89190611c09565b610240565b6040516100ca9190611c64565b60405180910390f35b6100ed60048036038101906100e89190611cdd565b6105c5565b6040516100fa9190611c64565b60405180910390f35b61011d60048036038101906101189190611cdd565b61061b565b60405161012d9493929190611d9a565b60405180910390f35b610150600480360381019061014b9190611f29565b6107f0565b005b61016c60048036038101906101679190611fd0565b6109f0565b005b61018860048036038101906101839190611cdd565b610dfe565b005b6101a4600480360381019061019f9190612083565b61103a565b005b6101c060048036038101906101bb9190612083565b611280565b6040516101d69a999897969594939291906120e7565b60405180910390f35b6101f960048036038101906101f49190611cdd565b61167c565b6040516102069190611c64565b60405180910390f35b61022960048036038101906102249190611cdd565b61169c565b604051610237929190612485565b60405180910390f35b6000806003600085815260200190815260200160002060405180610140016040529081600082015481526020016001820160009054906101000a900473ffffffffffffffffffffffffffffffffffffffff1673ffffffffffffffffffffffffffffffffffffffff1673ffffffffffffffffffffffffffffffffffffffff1681526020016002820160009054906101000a900473ffffffffffffffffffffffffffffffffffffffff1673ffffffffffffffffffffffffffffffffffffffff1673ffffffffffffffffffffffffffffffffffffffff168152602001600382015481526020016004820160009054906101000a900460ff1615151515815260200160058201548152602001600682018054610357906124eb565b80601f0160208091040260200160405190810160405280929190818152602001828054610383906124eb565b80156103d05780601f106103a5576101008083540402835291602001916103d0565b820191906000526020600020905b8154815290600101906020018083116103b357829003601f168201915b505050505081526020016007820180546103e9906124eb565b80601f0160208091040260200160405190810160405280929190818152602001828054610415906124eb565b80156104625780601f1061043757610100808354040283529160200191610462565b820191906000526020600020905b81548152906001019060200180831161044557829003601f168201915b5050505050815260200160088201805461047b906124eb565b80601f01602080910402602001604051908101604052809291908181526020018280546104a7906124eb565b80156104f45780601f106104c9576101008083540402835291602001916104f4565b820191906000526020600020905b8154815290600101906020018083116104d757829003601f168201915b5050505050815260200160098201805461050d906124eb565b80601f0160208091040260200160405190810160405280929190818152602001828054610539906124eb565b80156105865780601f1061055b57610100808354040283529160200191610586565b820191906000526020600020905b81548152906001019060200180831161056957829003601f168201915b50505050508152505090506000816060015114806105a5575080608001515b156105b45760009150506105bf565b828160000151149150505b92915050565b6000600260008373ffffffffffffffffffffffffffffffffffffffff1673ffffffffffffffffffffffffffffffffffffffff16815260200190815260200160002060009054906101000a900460ff169050919050565b600160205280600052604060002060009150905080600001805461063e906124eb565b80601f016020809104026020016040519081016040528092919081815260200182805461066a906124eb565b80156106b75780601f1061068c576101008083540402835291602001916106b7565b820191906000526020600020905b81548152906001019060200180831161069a57829003601f168201915b5050505050908060010180546106cc906124eb565b80601f01602080910402602001604051908101604052809291908181526020018280546106f8906124eb565b80156107455780601f1061071a57610100808354040283529160200191610745565b820191906000526020600020905b81548152906001019060200180831161072857829003601f168201915b50505050509080600201805461075a906124eb565b80601f0160208091040260200160405190810160405280929190818152602001828054610786906124eb565b80156107d35780601f106107a8576101008083540402835291602001916107d3565b820191906000526020600020905b8154815290600101906020018083116107b657829003601f168201915b5050505050908060030160009054906101000a900460ff16905084565b6000803373ffffffffffffffffffffffffffffffffffffffff1673ffffffffffffffffffffffffffffffffffffffff16815260200190815260200160002060009054906101000a900460ff161561087c576040517f08c379a000000000000000000000000000000000000000000000000000000000815260040161087390612568565b60405180910390fd5b60016000803373ffffffffffffffffffffffffffffffffffffffff1673ffffffffffffffffffffffffffffffffffffffff16815260200190815260200160002060006101000a81548160ff021916908315150217905550604051806080016040528084815260200183815260200182815260200160011515815250600160003373ffffffffffffffffffffffffffffffffffffffff1673ffffffffffffffffffffffffffffffffffffffff168152602001908152602001600020600082015181600001908161094b9190612734565b5060208201518160010190816109619190612734565b5060408201518160020190816109779190612734565b5060608201518160030160006101000a81548160ff0219169083151502179055509050503373ffffffffffffffffffffffffffffffffffffffff167f2b062b4e0857383c98aacd16bcd2714030d81ad54eb91dd1885634442438665184846040516109e3929190612806565b60405180910390a2505050565b6000803373ffffffffffffffffffffffffffffffffffffffff1673ffffffffffffffffffffffffffffffffffffffff16815260200190815260200160002060009054906101000a900460ff16610a7b576040517f08c379a0000000000000000000000000000000000000000000000000000000008152600401610a7290612889565b60405180910390fd5b6000801b8503610ac0576040517f08c379a0000000000000000000000000000000000000000000000000000000008152600401610ab7906128f5565b60405180910390fd5b600073ffffffffffffffffffffffffffffffffffffffff168473ffffffffffffffffffffffffffffffffffffffff1603610b2f576040517f08c379a0000000000000000000000000000000000000000000000000000000008152600401610b2690612961565b60405180910390fd5b6000600360008781526020019081526020016000206003015414610b88576040517f08c379a0000000000000000000000000000000000000000000000000000000008152600401610b7f906129cd565b60405180910390fd5b6000600360008781526020019081526020016000209050838160000181905550848160010160006101000a81548173ffffffffffffffffffffffffffffffffffffffff021916908373ffffffffffffffffffffffffffffffffffffffff160217905550338160020160006101000a81548173ffffffffffffffffffffffffffffffffffffffff021916908373ffffffffffffffffffffffffffffffffffffffff16021790555042816003018190555060008160040160006101000a81548160ff02191690831515021790555060008160050181905550600160003373ffffffffffffffffffffffffffffffffffffffff1673ffffffffffffffffffffffffffffffffffffffff168152602001908152602001600020600001816006019081610cb09190612a18565b50600160003373ffffffffffffffffffffffffffffffffffffffff1673ffffffffffffffffffffffffffffffffffffffff168152602001908152602001600020600101816007019081610d039190612a18565b5082816008019081610d159190612734565b5081816009019081610d279190612734565b50600460003373ffffffffffffffffffffffffffffffffffffffff1673ffffffffffffffffffffffffffffffffffffffff1681526020019081526020016000208690806001815401808255809150506001900390600052602060002001600090919091909150553373ffffffffffffffffffffffffffffffffffffffff168573ffffffffffffffffffffffffffffffffffffffff16877f68f98d13b94c9094a5de875951af464c68006a4268e07d480c936454ece6a6348742604051610dee929190612b00565b60405180910390a4505050505050565b6000803373ffffffffffffffffffffffffffffffffffffffff1673ffffffffffffffffffffffffffffffffffffffff16815260200190815260200160002060009054906101000a900460ff16610e89576040517f08c379a0000000000000000000000000000000000000000000000000000000008152600401610e8090612889565b60405180910390fd5b600073ffffffffffffffffffffffffffffffffffffffff168173ffffffffffffffffffffffffffffffffffffffff1603610ef8576040517f08c379a0000000000000000000000000000000000000000000000000000000008152600401610eef90612b75565b60405180910390fd5b600260008273ffffffffffffffffffffffffffffffffffffffff1673ffffffffffffffffffffffffffffffffffffffff16815260200190815260200160002060009054906101000a900460ff1615610f85576040517f08c379a0000000000000000000000000000000000000000000000000000000008152600401610f7c90612be1565b60405180910390fd5b6001600260008373ffffffffffffffffffffffffffffffffffffffff1673ffffffffffffffffffffffffffffffffffffffff16815260200190815260200160002060006101000a81548160ff0219169083151502179055503373ffffffffffffffffffffffffffffffffffffffff168173ffffffffffffffffffffffffffffffffffffffff167f40a3770fa32da25d352c90e0a204ef9c13d3756eb9e02b5c8d2b797fec18545360405160405180910390a350565b6000803373ffffffffffffffffffffffffffffffffffffffff1673ffffffffffffffffffffffffffffffffffffffff16815260200190815260200160002060009054906101000a900460ff166110c5576040517f08c379a00000000000000000000000000000000000000000000000000000000081526004016110bc90612889565b60405180910390fd5b60006003600083815260200190815260200160002090506000816003015403611123576040517f08c379a000000000000000000000000000000000000000000000000000000000815260040161111a90612c4d565b60405180910390fd5b3373ffffffffffffffffffffffffffffffffffffffff168160020160009054906101000a900473ffffffffffffffffffffffffffffffffffffffff1673ffffffffffffffffffffffffffffffffffffffff16146111b5576040517f08c379a00000000000000000000000000000000000000000000000000000000081526004016111ac90612cb9565b60405180910390fd5b8060040160009054906101000a900460ff1615611207576040517f08c379a00000000000000000000000000000000000000000000000000000000081526004016111fe90612d25565b60405180910390fd5b60018160040160006101000a81548160ff0219169083151502179055504281600501819055503373ffffffffffffffffffffffffffffffffffffffff16827f85fe6dd2dfc4757558754564c7ff020182ec3c918257c2ff3a217a63791ec24f426040516112749190612d45565b60405180910390a35050565b6000806000806000806060806060806000600360008d815260200190815260200160002060405180610140016040529081600082015481526020016001820160009054906101000a900473ffffffffffffffffffffffffffffffffffffffff1673ffffffffffffffffffffffffffffffffffffffff1673ffffffffffffffffffffffffffffffffffffffff1681526020016002820160009054906101000a900473ffffffffffffffffffffffffffffffffffffffff1673ffffffffffffffffffffffffffffffffffffffff1673ffffffffffffffffffffffffffffffffffffffff168152602001600382015481526020016004820160009054906101000a900460ff16151515158152602001600582015481526020016006820180546113a5906124eb565b80601f01602080910402602001604051908101604052809291908181526020018280546113d1906124eb565b801561141e5780601f106113f35761010080835404028352916020019161141e565b820191906000526020600020905b81548152906001019060200180831161140157829003601f168201915b50505050508152602001600782018054611437906124eb565b80601f0160208091040260200160405190810160405280929190818152602001828054611463906124eb565b80156114b05780601f10611485576101008083540402835291602001916114b0565b820191906000526020600020905b81548152906001019060200180831161149357829003601f168201915b505050505081526020016008820180546114c9906124eb565b80601f01602080910402602001604051908101604052809291908181526020018280546114f5906124eb565b80156115425780601f1061151757610100808354040283529160200191611542565b820191906000526020600020905b81548152906001019060200180831161152557829003601f168201915b5050505050815260200160098201805461155b906124eb565b80601f0160208091040260200160405190810160405280929190818152602001828054611587906124eb565b80156115d45780601f106115a9576101008083540402835291602001916115d4565b820191906000526020600020905b8154815290600101906020018083116115b757829003601f168201915b50505050508152505090506000816060015103611626576040517f08c379a000000000000000000000000000000000000000000000000000000000815260040161161d90612c4d565b60405180910390fd5b806000015181602001518260400151836060015184608001518560a001518660c001518760e001518861010001518961012001519a509a509a509a509a509a509a509a509a509a50509193959799509193959799565b60006020528060005260406000206000915054906101000a900460ff1681565b6060806000600460008573ffffffffffffffffffffffffffffffffffffffff1673ffffffffffffffffffffffffffffffffffffffff16815260200190815260200160002080548060200260200160405190810160405280929190818152602001828054801561172a57602002820191906000526020600020905b815481526020019060010190808311611716575b505050505090506000815167ffffffffffffffff81111561174e5761174d611dfe565b5b60405190808252806020026020018201604052801561178757816020015b611774611b3b565b81526020019060019003908161176c5790505b50905060005b8251811015611b2d57600360008483815181106117ad576117ac612d60565b5b6020026020010151815260200190815260200160002060405180610140016040529081600082015481526020016001820160009054906101000a900473ffffffffffffffffffffffffffffffffffffffff1673ffffffffffffffffffffffffffffffffffffffff1673ffffffffffffffffffffffffffffffffffffffff1681526020016002820160009054906101000a900473ffffffffffffffffffffffffffffffffffffffff1673ffffffffffffffffffffffffffffffffffffffff1673ffffffffffffffffffffffffffffffffffffffff168152602001600382015481526020016004820160009054906101000a900460ff16151515158152602001600582015481526020016006820180546118c4906124eb565b80601f01602080910402602001604051908101604052809291908181526020018280546118f0906124eb565b801561193d5780601f106119125761010080835404028352916020019161193d565b820191906000526020600020905b81548152906001019060200180831161192057829003601f168201915b50505050508152602001600782018054611956906124eb565b80601f0160208091040260200160405190810160405280929190818152602001828054611982906124eb565b80156119cf5780601f106119a4576101008083540402835291602001916119cf565b820191906000526020600020905b8154815290600101906020018083116119b257829003601f168201915b505050505081526020016008820180546119e8906124eb565b80601f0160208091040260200160405190810160405280929190818152602001828054611a14906124eb565b8015611a615780601f10611a3657610100808354040283529160200191611a61565b820191906000526020600020905b815481529060010190602001808311611a4457829003601f168201915b50505050508152602001600982018054611a7a906124eb565b80601f0160208091040260200160405190810160405280929190818152602001828054611aa6906124eb565b8015611af35780601f10611ac857610100808354040283529160200191611af3565b820191906000526020600020905b815481529060010190602001808311611ad657829003601f168201915b505050505081525050828281518110611b0f57611b0e612d60565b5b60200260200101819052508080611b2590612dbe565b91505061178d565b508181935093505050915091565b60405180610140016040528060008019168152602001600073ffffffffffffffffffffffffffffffffffffffff168152602001600073ffffffffffffffffffffffffffffffffffffffff1681526020016000815260200160001515815260200160008152602001606081526020016060815260200160608152602001606081525090565b6000604051905090565b600080fd5b600080fd5b6000819050919050565b611be681611bd3565b8114611bf157600080fd5b50565b600081359050611c0381611bdd565b92915050565b60008060408385031215611c2057611c1f611bc9565b5b6000611c2e85828601611bf4565b9250506020611c3f85828601611bf4565b9150509250929050565b60008115159050919050565b611c5e81611c49565b82525050565b6000602082019050611c796000830184611c55565b92915050565b600073ffffffffffffffffffffffffffffffffffffffff82169050919050565b6000611caa82611c7f565b9050919050565b611cba81611c9f565b8114611cc557600080fd5b50565b600081359050611cd781611cb1565b92915050565b600060208284031215611cf357611cf2611bc9565b5b6000611d0184828501611cc8565b91505092915050565b600081519050919050565b600082825260208201905092915050565b60005b83811015611d44578082015181840152602081019050611d29565b60008484015250505050565b6000601f19601f8301169050919050565b6000611d6c82611d0a565b611d768185611d15565b9350611d86818560208601611d26565b611d8f81611d50565b840191505092915050565b60006080820190508181036000830152611db48187611d61565b90508181036020830152611dc88186611d61565b90508181036040830152611ddc8185611d61565b9050611deb6060830184611c55565b95945050505050565b600080fd5b600080fd5b7f4e487b7100000000000000000000000000000000000000000000000000000000600052604160045260246000fd5b611e3682611d50565b810181811067ffffffffffffffff82111715611e5557611e54611dfe565b5b80604052505050565b6000611e68611bbf565b9050611e748282611e2d565b919050565b600067ffffffffffffffff821115611e9457611e93611dfe565b5b611e9d82611d50565b9050602081019050919050565b82818337600083830152505050565b6000611ecc611ec784611e79565b611e5e565b905082815260208101848484011115611ee857611ee7611df9565b5b611ef3848285611eaa565b509392505050565b600082601f830112611f1057611f0f611df4565b5b8135611f20848260208601611eb9565b91505092915050565b600080600060608486031215611f4257611f41611bc9565b5b600084013567ffffffffffffffff811115611f6057611f5f611bce565b5b611f6c86828701611efb565b935050602084013567ffffffffffffffff811115611f8d57611f8c611bce565b5b611f9986828701611efb565b925050604084013567ffffffffffffffff811115611fba57611fb9611bce565b5b611fc686828701611efb565b9150509250925092565b600080600080600060a08688031215611fec57611feb611bc9565b5b6000611ffa88828901611bf4565b955050602061200b88828901611cc8565b945050604061201c88828901611bf4565b935050606086013567ffffffffffffffff81111561203d5761203c611bce565b5b61204988828901611efb565b925050608086013567ffffffffffffffff81111561206a57612069611bce565b5b61207688828901611efb565b9150509295509295909350565b60006020828403121561209957612098611bc9565b5b60006120a784828501611bf4565b91505092915050565b6120b981611bd3565b82525050565b6120c881611c9f565b82525050565b6000819050919050565b6120e1816120ce565b82525050565b6000610140820190506120fd600083018d6120b0565b61210a602083018c6120bf565b612117604083018b6120bf565b612124606083018a6120d8565b6121316080830189611c55565b61213e60a08301886120d8565b81810360c08301526121508187611d61565b905081810360e08301526121648186611d61565b90508181036101008301526121798185611d61565b905081810361012083015261218e8184611d61565b90509b9a5050505050505050505050565b600081519050919050565b600082825260208201905092915050565b6000819050602082019050919050565b6121d481611bd3565b82525050565b60006121e683836121cb565b60208301905092915050565b6000602082019050919050565b600061220a8261219f565b61221481856121aa565b935061221f836121bb565b8060005b8381101561225057815161223788826121da565b9750612242836121f2565b925050600181019050612223565b5085935050505092915050565b600081519050919050565b600082825260208201905092915050565b6000819050602082019050919050565b61229281611c9f565b82525050565b6122a1816120ce565b82525050565b6122b081611c49565b82525050565b600082825260208201905092915050565b60006122d282611d0a565b6122dc81856122b6565b93506122ec818560208601611d26565b6122f581611d50565b840191505092915050565b60006101408301600083015161231960008601826121cb565b50602083015161232c6020860182612289565b50604083015161233f6040860182612289565b5060608301516123526060860182612298565b50608083015161236560808601826122a7565b5060a083015161237860a0860182612298565b5060c083015184820360c086015261239082826122c7565b91505060e083015184820360e08601526123aa82826122c7565b9150506101008301518482036101008601526123c682826122c7565b9150506101208301518482036101208601526123e282826122c7565b9150508091505092915050565b60006123fb8383612300565b905092915050565b6000602082019050919050565b600061241b8261225d565b6124258185612268565b93508360208202850161243785612279565b8060005b85811015612473578484038952815161245485826123ef565b945061245f83612403565b925060208a0199505060018101905061243b565b50829750879550505050505092915050565b6000604082019050818103600083015261249f81856121ff565b905081810360208301526124b38184612410565b90509392505050565b7f4e487b7100000000000000000000000000000000000000000000000000000000600052602260045260246000fd5b6000600282049050600182168061250357607f821691505b602082108103612516576125156124bc565b5b50919050565b7f49737375657220616c7265616479207265676973746572656400000000000000600082015250565b6000612552601983611d15565b915061255d8261251c565b602082019050919050565b6000602082019050818103600083015261258181612545565b9050919050565b60008190508160005260206000209050919050565b60006020601f8301049050919050565b600082821b905092915050565b6000600883026125ea7fffffffffffffffffffffffffffffffffffffffffffffffffffffffffffffffff826125ad565b6125f486836125ad565b95508019841693508086168417925050509392505050565b6000819050919050565b600061263161262c612627846120ce565b61260c565b6120ce565b9050919050565b6000819050919050565b61264b83612616565b61265f61265782612638565b8484546125ba565b825550505050565b600090565b612674612667565b61267f818484612642565b505050565b5b818110156126a35761269860008261266c565b600181019050612685565b5050565b601f8211156126e8576126b981612588565b6126c28461259d565b810160208510156126d1578190505b6126e56126dd8561259d565b830182612684565b50505b505050565b600082821c905092915050565b600061270b600019846008026126ed565b1980831691505092915050565b600061272483836126fa565b9150826002028217905092915050565b61273d82611d0a565b67ffffffffffffffff81111561275657612755611dfe565b5b61276082546124eb565b61276b8282856126a7565b600060209050601f83116001811461279e576000841561278c578287015190505b6127968582612718565b8655506127fe565b601f1984166127ac86612588565b60005b828110156127d4578489015182556001820191506020850194506020810190506127af565b868310156127f157848901516127ed601f8916826126fa565b8355505b6001600288020188555050505b505050505050565b600060408201905081810360008301526128208185611d61565b905081810360208301526128348184611d61565b90509392505050565b7f596f7520617265206e6f74206120726567697374657265642069737375657200600082015250565b6000612873601f83611d15565b915061287e8261283d565b602082019050919050565b600060208201905081810360008301526128a281612866565b9050919050565b7f496e76616c696420636572746966696361746549640000000000000000000000600082015250565b60006128df601583611d15565b91506128ea826128a9565b602082019050919050565b6000602082019050818103600083015261290e816128d2565b9050919050565b7f496e76616c69642073747564656e742061646472657373000000000000000000600082015250565b600061294b601783611d15565b915061295682612915565b602082019050919050565b6000602082019050818103600083015261297a8161293e565b9050919050565b7f416c726561647920697373756564000000000000000000000000000000000000600082015250565b60006129b7600e83611d15565b91506129c282612981565b602082019050919050565b600060208201905081810360008301526129e6816129aa565b9050919050565b6000815490506129fc816124eb565b9050919050565b60008190508160005260206000209050919050565b818103612a26575050612afe565b612a2f826129ed565b67ffffffffffffffff811115612a4857612a47611dfe565b5b612a5282546124eb565b612a5d8282856126a7565b6000601f831160018114612a8c5760008415612a7a578287015490505b612a848582612718565b865550612af7565b601f198416612a9a87612a03565b9650612aa586612588565b60005b82811015612acd57848901548255600182019150600185019450602081019050612aa8565b86831015612aea5784890154612ae6601f8916826126fa565b8355505b6001600288020188555050505b5050505050505b565b6000604082019050612b1560008301856120b0565b612b2260208301846120d8565b9392505050565b7f496e76616c696420766572696669657220616464726573730000000000000000600082015250565b6000612b5f601883611d15565b9150612b6a82612b29565b602082019050919050565b60006020820190508181036000830152612b8e81612b52565b9050919050565b7f416c726561647920612076657269666965720000000000000000000000000000600082015250565b6000612bcb601283611d15565b9150612bd682612b95565b602082019050919050565b60006020820190508181036000830152612bfa81612bbe565b9050919050565b7f4365727469666963617465206e6f7420666f756e640000000000000000000000600082015250565b6000612c37601583611d15565b9150612c4282612c01565b602082019050919050565b60006020820190508181036000830152612c6681612c2a565b9050919050565b7f4f6e6c79206f726967696e616c206973737565722063616e207265766f6b6500600082015250565b6000612ca3601f83611d15565b9150612cae82612c6d565b602082019050919050565b60006020820190508181036000830152612cd281612c96565b9050919050565b7f416c7265616479207265766f6b65640000000000000000000000000000000000600082015250565b6000612d0f600f83611d15565b9150612d1a82612cd9565b602082019050919050565b60006020820190508181036000830152612d3e81612d02565b9050919050565b6000602082019050612d5a60008301846120d8565b92915050565b7f4e487b7100000000000000000000000000000000000000000000000000000000600052603260045260246000fd5b7f4e487b7100000000000000000000000000000000000000000000000000000000600052601160045260246000fd5b6000612dc9826120ce565b91507fffffffffffffffffffffffffffffffffffffffffffffffffffffffffffffffff8203612dfb57612dfa612d8f565b5b60018201905091905056fea26469706673582212206431d452f5807226c901bdfb1b86e69111fc1791e0182b34ec9e65bf1f2316a164736f6c63430008110033",
  "linkReferences": {},
  "deployedLinkReferences": {}
}